S013000057654163745F626C696E6B2E73726563CE
S31500000000880400204D0B0000290A0000490B00005F
S31500000010490B0000490B0000490B0000490B00008A
S31500000020000000000000000000000000490B000076
S31500000030490B000000000000490B0000490B0000BE
S31500000040FFFFFFFFFFFFFFFFFFFFFFFFFFFFFFFFBA
S31500000050FFFFFFFFFFFFFFFFFFFFFFFFFFFFFFFFAA
S31500000060FFFFFFFFFFFFFFFFFFFFFFFFFFFFFFFF9A
S31500000070FFFFFFFFFFFFFFFFFFFFFFFFFFFFFFFF8A
S31500000400FFFFFFFFDFCEFFFFFCFFFF00FFFFFF0048
S31500000410FCFFFF00FFFFFF00FCFFFF00FFFFFF00E8
S31500000420FCFF0F20FFFF0F20FCFF7F40FFFF7F40F8
S31500000430FCFF0D40FFFF0D40FFFFFFFF0348044B8D
S31500000440834202D0034B03B11847704708000020CF
S3150000045008000020000000000548064B1B1AD90FB3
S3150000046001EBA301491002D0034B03B118477047B3
S3150000047008000020080000200000000010B5064C0F
S31500000480237843B9FFF7DAFF044B13B10448AFF3FF
S3150000049000800123237010BD200000200000000012
S315000004A0B00D000008B5054B1BB105490548AFF373
S315000004B00080BDE80840FFF7CFBF00BF0000000086
S315000004C024000020B00D00002DE9F047214D224FF9
S315000004D0DFF890A0214EDFF89090DFF8908082B090
S315000004E0002411E0B9EBB10F27D206FB04F3B8EBF9
S315000004F0F30F04D300220C21284600F061F84FF4D4
S315000005007A71012000F068FA0DF107020D212846E4
S3150000051000F048F89DF80730013406FB04F107FBAC
S3150000052004F2002BDED0BAEBF20F0CD20C4B07FB19
S3150000053004F2B3EB321FE2D3DCE701220C2128469A
S3150000054000F03EF8D1E701220C21284600F038F8E9
S31500000550ECE700BF3C000020D578E926295C8FC275
S315000005609BC4200037894100285C8F0214AE4701E6
S3150000057020B9064B012283F890207047022800D04C
S3150000058070470349034800F0F7B800BF00C07E403B
S31500000590440D00003C00002008B5FFF795FF002041
S315000005A008BD00BF0B0A1B01044853FA81F150F83D
S315000005B02130C3F340030020137070470008044045
S315000005C010B4CBB201249C40A4B202B924040B0A95
S315000005D05B0103F1804303F5802300209C605DF8F6
S315000005E0044B70472DE9F84F0388DBB1DFF8D8805C
S315000005F082464FF0000B4FF00109314D4FEACB0711
S315000006000024DAF8043035F8022BD919898891428A
S315000006100AD00134032CF4D1BAF800300BF1010BE7
S315000006205B45EAD8BDE8F88FDB5903F0B85309FA01
S3150000063004F6B3F1807FF6B298F8BB3413D0334298
S3150000064031D1204A04F1200112F81130DB09E0D043
S3150000065012F8113023F0800302F81130C82001216E
S3150000066000F0BAF9D5E7334211D0164A04F1200159
S3150000067012F81130DB09CCD112F8113043F08003A7
S3150000068002F81130C820012100F0A6F9C1E70120C7
S3150000069000F030FA98F8BB343343012088F8BB34B5
S315000006A000F0F8F9E1E7012000F024FA98F8BB34ED
S315000006B023EA0603012088F8BB3400F0EBF9C0E713
S315000006C0800D00000040044000E00140F8B50646F9
S315000006D0FFF788FFEFF31082012383F31088234886
S315000006E003681BB92249CB704023CB7003680133E2
S315000006F0036082F31088338823B31E4D002108E07F
S315000007001B011344013145F8234032888BB29A42CB
S3150000071018D9736803EBC10253F831409288E70396
S315000007204FEA1223D2B224F4803E02EB031CE7D533
S3150000073055F82C7027F4803745F82C701B0145F8C6
S315000007402CE0DEE7EFF31082012383F310880368C1
S3150000075013B10368013B036003681BB90449802099
S31500000760CB70C87082F31088F8BD00BF78000020F7
S31500000770000D04400008044008B5034B036008461A
S31500000780FFF7A4FF002008BD54524F50064B0749FF
S3150000079093F826001A6A51F820300549C2F302621E
S315000007A0D3400B60704700BF00E001400800002006
S315000007B084000020704700BF70B54F4B4F4D504925
S315000007C0504A514E00204AF20354A3F8FE43A1F8C2
S315000007D000012A604D4A93F826406A614FF40041B1
S315000007E0C5E90161C5E90321196A55F82420484E77
S315000007F0C1F30261CA400921326083F8130483F809
S31500000800A21093F880241AB993F881349B076ED00E
S31500000810394C94F88034002B5ED0374B002283F895
S31500000820812483F88024344A92F8A0308BB192F860
S315000008303630002B47D0304A92F8A030D806C3F3A2
S315000008400011F9D42C4882F8A01090F8A030D906EF
S31500000850FBD4294C0122002384F8362084F8323058
S3150000086094F83C301A07FBD5C72384F82B300D20AB
S3150000087000F0ACF80023204A84F82A3092F83C3085
S315000008809B06FBD523491162052382F8263092F890
S315000008902630106A55F823301949C0F30260C34068
S315000008A0336001244FF4254382F8D040A2F8FE338A
S315000008B0A1F80441B1F804319BB2002BFAD101230F
S315000008C0A1F8003170BD92F83C30DC07B3D492F841
S315000008D03C30DC07F7D5AEE7012184F88014C82048
S315000008E000F07AF894F88034012BFBD195E74FF4A9
S315000008F07A70FFF75FFF96E700E0014008000020EE
S3150000090000C00140006CDC0200127A000024F400F2
S31500000910840000200001011038B5294C002584F818
S3150000092028500121C82000F057F884F8245094F884
S315000009302430002BFBD194F82430214943F00203E4
S3150000094084F8243091F82430C3F340009B07F9D48F
S315000009501B4A81F8220092F8223003F0FF00002B98
S31500000960F9D192F84030164960F3C71382F8403047
S3150000097091F84030DB09FBD191F84200104A63F34D
S31500000980C71081F8420092F84230DB09FBD192F899
S3150000099044000B4963F3C71082F8440091F84430D1
S315000009A0C3F3C014DB09F9D1012000F0A3F8054B0D
S315000009B083F8BB44BDE83840012000F06BB800BFA7
S315000009C00040044000E00140704700BFA0F1010074
S315000009D00028FBD1704700BF30B400FB01F1104D79
S315000009E0104A2868B2FBF0F24FF47A73A1FB03C4F5
S315000009F03CB9BCFBF2FC4FEA9C0070B130BCFFF77F
S31500000A00E5BF9200B1FBF2F1A1FB03134FF0FF30FB
S31500000A10002BF3D108460028F0D130BC704700BF48
S31500000A208400002000CA9A3B70B50C4B0C4EB3F8FC
S31500000A302021B3F84051ADB20024154025FA04F345
S31500000A40DB0704D556F82430E0B203B198470134E9
S31500000A500D2CF3D1014BA3F8305170BD006000405E
S31500000A6044000020094A10B4094C02F1200C5042FF
S31500000A70134612F8011F0344C03309B144F823108A
S31500000A806245F5D15DF8044B704700BF870D000045
S31500000A9000600040EFF31081012383F31088124BAE
S31500000AA033F8102092B22AB133F81020013A92B2EC
S31500000AB023F8102033F810309BB293B910B40B4AC8
S31500000AC00B4CB2F8FE3334F810009BB243F42543C6
S31500000AD023EA0003A2F8FE3381F310885DF8044B85
S31500000AE0704781F3108870477C00002000E00140C9
S31500000AF0A80D000030B4EFF31081012383F31088B2
S31500000B000E4A32F810309BB26BB90D4C0D4DB4F84D
S31500000B10FE3335F810C09BB243EA0C0343F4254379
S31500000B209BB2A4F8FE3332F8103001339BB222F8A0
S31500000B30103081F3108830BC704700BF7C00002065
S31500000B4000E00140A80D000000BE704708B500F0A7
S31500000B5003F8FFF721FDFEE7F0B5474B474A484E3D
S31500000B604FF47000C3F888004AF202519E600123D8
S31500000B70A2F8FE1383B082F81F3492F8B134DB0674
S31500000B80FBD54FF42547A2F8FE7300200024FFF79B
S31500000B90EFFCFFF711FE8DF8074001209DF80730A6
S31500000BA0FFF7A8FFEFF31081012585F31088354B79
S31500000BB0D3F8042122F00042C3F80421D3F804211B
S31500000BC081F31088304A1168C1F300018DF80710CF
S31500000BD01168C1F300018DF807101268C2F3000214
S31500000BE08DF80720EFF3108185F31088D3F80421E0
S31500000BF042F00042C3F80421D3F8043181F310888F
S31500000C002846FFF747FF2846FFF7B2FC1F4B204850
S31500000C109C801F803268A2F580619960DA601D4968
S31500000C201D4A4FF48056A1F82061121A9D80214674
S31500000C3000F03EF819481A4A1A491B4D121A00F0DC
S31500000C403FF81A4B5B1BA3424FEAA30605DD55F896
S31500000C50043B01349847A642F9DCFFF797FDFFF7FE
S31500000C605BFE0220FFF784FCFFF7FCFE002003B0CA
S31500000C70BDE8F040FFF7A8BE00ED00E000E001404F
S31500000C8000000000006F044000080440000D004012
S31500000C9020000020006000408800002000000020A6
S31500000CA008000020B40D0000000000200400002011
S31500000CB002440346934200D1704703F8011BF9E74B
S31500000CC00A44914200F1FF3300D1704710B511F884
S31500000CD0014B03F8014F9142F9D110BD4275696C81
S31500000CE07420776974682052656E6573617320415C
S31500000CF06476616E63656420466C657869626C65CE
S31500000D0020536F667477617265205061636B61670B
S31500000D10652076657273696F6E20352E362E30002B
S31500000D20352E362E3000000000000605F8B500BF4F
S31500000D30F8BC08BC9E467047F8B500BFF8BC08BCB6
S31500000D409E46704706000000500D0000000000009F
S31500000D50050000000C000000100000000D0000005F
S31500000D600000010008010000000001000901000068
S31500000D70000001000A01000000000100000300005D
S31500000D80020403040404FFFF00000000000000004A
S31500000D90000000000000000000000000000000004D
S31500000DA00000000000000000010002000800100022
S30900000DB00000000039
S30D00000DB4A50400007D04000007
S31501010018FFFFFFFFFFFFFFFFFFFFFFFFFFFFFFFFE0
S31101010028FFFFFFFFFFFFFFFFFFFFFFFFD0
S70500000B4DA2
